:100000000C9447010C946F010C946F010C94C8037D
:100010000C94F5030C9422040C946F010C946F0162
:100020000C946F010C946F010C946F010C946F0190
:100030000C946F010C946F010C946F010C946F0180
:100040000C9488180C946F010C946A160C949C16EE
:100050000C946F010C946F010C946F010C946F0160
:100060000C946F010C946F012C204944203D20001A
:10007000526164696F203120496E69743A20002E04
:100080002E2E0D0A005D205B0052583A5B0045722F
:10009000726F722072656164696E67207061636B54
:1000A00065742064617461202870726F6261626C93
:1000B00079206120636F6C6C6973696F6E290D0A1A
:1000C000002E2E2E0D0A005D205B0054583A5B0076
:1000D0002E2E2E0D0A005D205B00524551554553D2
:1000E00054205245504541543A5B002E2E2E0D0AA5
:1000F000005D205B00524553504F4E534520524502
:10010000504541543A5B002E2E2E0D0A005D205BB7
:10011000005245504541543A5B00206F7468657247
:10012000206E6F6465730D0A0046696E69736865B9
:10013000642070696E672C20666F756E64200020E5
:1001400073656E64696E67206E616D6520636F6EA6
:10015000666C6963740D0A00466F756E642064698D
:1001600066666572656E74206E6F64652070757367
:1001700068696E67207061636B65747320617320BA
:100180007573202D3E002073696E63652074686569
:1001900079206861766520612068696768657220EA
:1001A000756E697175652C2072656A6F696E696E0E
:1001B000672E2E2E0D0A00646566657272696E6781
:1001C000204A4F494E20746F2000417474656D7051
:1001D00074696E6720746F206A6F696E2061732086
:1001E00000292000203A20280018020202EF0149CD
:1001F0006E76616C69642056616C75652053697A0E
:10020000650052656D6F74652043616C6C6261635B
:100210006B204572726F7200556E6B6E6F776E2039
:100220004572726F7220286E6F7420736574290096
:1002300000000008000201000003040700000000A5
:1002400000000000010204081020408001020408A0
:10025000102001020408102004040404040404040F
:100260000202020202020303030303030000000070
:1002700023002600290000000000250028002B0094
:1002800000000000240027002A005C07CC1611247F
:100290001FBECFEFD8E0DEBFCDBF11E0A0E0B1E0E0
:1002A000ECE8F8E302C005900D92A435B107D9F748
:1002B00024E0A4E5B1E001C01D92AF33B207E1F73D
:1002C00012E0CEE8D2E004C02297FE010E94311C69
:1002D000CA38D107C9F70E9449020C94A41B0C9498
:1002E000000008958F929F92AF92BF92CF92DF92BB
:1002F000EF92FF920E94D2186B017C018090540112
:1003000090905501A0905601B0905701A8EEB3E02F
:10031000A50194010E941C1CC61AD70AE80AF90A12
:1003200089EEC81683E0D806E104F104C8F18928F3
:100330008A288B2831F460E070E088E591E00E9423
:10034000E0148091540190915501A0915601B09113
:1003500057010597A105B10599F46DE088E591E095
:100360000E94B204F82E6BE071E085E993E00E94F0
:100370004F174AE050E06F2D85E993E00E94551831
:100380000E94D21828EE33E040E050E00E94DB1BD0
:1003900020935401309355014093560150935701D7
:1003A00088E591E0FF90EF90DF90CF90BF90AF9005
:1003B0009F908F900C942D14CF93DF93EC01FE014E
:1003C0006491662331F085E993E00E94A31521969C
:1003D000F6CFDF91CF9108958F929F92AF92CF92F7
:1003E000EF920F931F93CF9326E040E052EC61E031
:1003F00070E085E993E00E94081666E171E085E906
:1004000093E00E946C1761E08BE00E94691960E044
:100410008CE00E94691961E08DE00E946919812CCD
:10042000912C84E0A82EC12C94E0E92E09E716E275
:1004300024E03BED48E050E067E070E088E591E0C3
:100440000E94C307C82F80E790E00E94DC0161E0B2
:1004500070E0C13011F060E070E04AE050E085E902
:1004600093E00E94211888E690E00E94DC016091F0
:1004700063017091640140E150E085E993E0CF9120
:100480001F910F91EF90CF90AF909F908F900C9411
:1004900072180E94E8180E9471010E94EC01C2E5E6
:1004A000D5E10E9472012097E1F30E945215F9CF25
:1004B000CF93CFB7F89480913303811116C061E0D8
:1004C0008AE00E94A21961E08AE00E9469198CB555
:1004D00080618CBD8CB580648CBD61E08DE00E9434
:1004E000691961E08BE00E946919809133038F5F85
:1004F00080933303CFBFCF910895E0919303F0E051
:10050000EC5CFC4F8081823040F4E0919303F0E09A
:10051000EC5CFC4F80818F5F8083089520913203D3
:10052000222399F03FB7F89420913203213059F4F7
:100530002DB3209330034DB3209131032095242314
:100540002DBB3FBF02C0309330038CBD9DBD0895CD
:100550008EBD00000DB407FEFDCF8EB508958091CD
:100560003203882361F09FB7F89420913203809181
:100570003003213019F48DBB9FBF08958FBF0895BC
:10058000CF93DF93DC01FB012283518340831296DA
:10059000CD91DC91139788819381892B8883828107
:1005A0008D7F813041F415968C9115979381892B1D
:1005B00015968C93159782818150823040F416965F
:1005C0008C9116979381892B16968C931697809110
:1005D000680014969C91892B80936800DF91CF91DD
:1005E0000895EF92FF920F931F93CF93DF9300D064
:1005F00000D0CDB7DEB78C01FC01E084F184E114BA
:10060000F10489F0F7018481861306C0B701C8019F
:100610000E94C00280E040C0F7018581968100976A
:1006200011F07C01EFCF87E090E02C834A835B835D
:1006300069830E940F17DC0111961C921E9212967C
:100640001C9212972C814A815B816981009719F174
:1006500014966C93149712962C93129716961C92DC
:100660001E921597E62FF0E0EC5BFD4FE491139698
:10067000EC931397F80180859185892B19F4B18744
:10068000A08703C0F701B683A583BD01C8010E94FE
:10069000C00281E001C08FEF0F900F900F900F907C
:1006A000DF91CF911F910F91FF90EF900895242F2C
:1006B000E82FF0E0E85AFD4FE491EE23D9F0611500
:1006C0007105C1F0F0E03297E330F10540F4EE0F30
:1006D000FF1FE65CFE4F0190F081E02D02C0E0E0DC
:1006E000F0E0A081B1819C919783AB01682FCF018D
:1006F0000C94F1028FEF0895FF920F931F93CF9305
:10070000DF93EC01209194038F813D8190919403BC
:100710004E81F0909403F094F4229323F92A8227D7
:10072000F822809194038F8308851985011511059E
:10073000E1F0D80113969C918F2D892381F080914F
:100740009403892391E009F490E090939203F801D7
:100750008481809393030190F081E02D0995D80165
:1007600015960D911C911697E1CF8BB39C8189232F
:1007700049F08BB3892B8BBBE881F9818081809311
:100780009403C0CFDF91CF911F910F91FF900895F7
:100790001F920F920FB60F9211242F933F934F93F6
:1007A0005F936F937F938F939F93AF93BF93EF93D9
:1007B000FF93E0918803F0918903808180939403F3
:1007C00088E893E00E947C03FF91EF91BF91AF9185
:1007D0009F918F917F916F915F914F913F912F9159
:1007E0000F900FBE0F901F9018951F920F920FB68B
:1007F0000F9211242F933F934F935F936F937F93A7
:100800008F939F93AF93BF93EF93FF93E0917E03FA
:10081000F0917F038081809394038EE793E00E94A0
:100820007C03FF91EF91BF91AF919F918F917F9149
:100830006F915F914F913F912F910F900FBE0F904D
:100840001F9018951F920F920FB60F9211242F939D
:100850003F934F935F936F937F938F939F93AF9348
:10086000BF93EF93FF93E0917403F0917503808140
:100870008093940384E793E00E947C03FF91EF91BF
:10088000BF91AF919F918F917F916F915F914F91A8
:100890003F912F910F900FBE0F901F901895EF92E0
:1008A000FF921F93CF93DF931F92CDB7DEB77C01EA
:1008B000162F60E0FC01808149830E94A21980E527
:1008C00090E00E948E02812F0E94A8024981842F0D
:1008D0000E94A8020E94AF0261E0F70180810F90A0
:1008E000DF91CF911F91FF90EF900C94A219EF929E
:1008F000FF921F93CF93DF9300D000D0CDB7DEB728
:100900007C01162F60E0FC0180812C833B834A83AD
:1009100059830E94A21980E590E00E948E02812FE7
:100920000E94A8025981852F0E94A8024A81842F23
:100930000E94A8023B81832F0E94A8022C81822F53
:100940000E94A8020E94AF0261E0F70180810F902F
:100950000F900F900F90DF91CF911F91FF90EF902C
:100960000C94A2191F93CF93DF93EC01162F60E034
:1009700088810E94A21980E590E00E948E02812F5A
:1009800080640E94A80280E00E94A802182F0E94A2
:10099000AF0261E088810E94A219812FDF91CF917F
:1009A0001F91089560E00E94B20480FF02C089E0B8
:1009B000089580E00895FC01248135811216130604
:1009C000CCF4F901EC5CFC4F20812230A9F4FC014D
:1009D00026813781232B31F420853185232B11F497
:1009E00085E0089560E00E94B20485FD07C086FF9F
:1009F000F7CF04C088E0089587E0089586E0089561
:100A000040E060E00E944F0488EE93E00C94DE1812
:100A1000EF92FF921F93CF93DF931F92CDB7DEB774
:100A20007C01162F79830E94580261E0812F0E9479
:100A30006919F70110837981718361E0812F0E9428
:100A4000A219C7010E94000549E16BE0C7010E949D
:100A50004F0441E06CE0C7010F90DF91CF911F91EF
:100A6000FF90EF900C944F0441E050E00C94080587
:100A70006150673050F470E0FB01ED5CFE4F208167
:100A8000FB01E45DFE4F408102C040E020E058E001
:100A9000259F90011124422B68E20C944F041F9370
:100AA000CF93DF93EC01162F60E088810E94A2199A
:100AB00080E590E00E948E02812F0E94A8020E9491
:100AC000AF0261E08881DF91CF911F910C94A21950
:100AD000AF92BF92CF92DF92EF92FF920F931F934C
:100AE000CF93DF931F92CDB7DEB75C017B01242F3C
:100AF000413049F0483039F0403129F0403219F0A6
:100B0000403409F048C060EAC50129830E944F05BE
:100B1000D5011496ED91FC91159729811E161F069B
:100B200034F4EC5CFC4F80818823B9F110824FEFE4
:100B3000420F63E0C50129830E944F0460EEC501A6
:100B40000E944F0560E0F50180810E94A21980E5B6
:100B500090E00E948E0285E00E94A8028701298110
:100B6000C22ED12CC8018E199F098C159D0534F415
:100B7000D8018D918D010E94A802F4CF0E94AF028E
:100B800061E0F50180810E94A21960EDC5010E941B
:100B90004F0580E003C084E001C089E00F90DF9141
:100BA000CF911F910F91FF90EF90DF90CF90BF906A
:100BB000AF900895AF92BF92CF92DF92EF92FF92E3
:100BC0000F931F93CF93DF931F92CDB7DEB75C01D6
:100BD0007B01413470F4FC0184819581FC01EC5C63
:100BE000FC4F181619063CF48081823021F087E012
:100BF0002FC084E02DC081E0808360EFC501498370
:100C00000E944F0587014981C42ED12CC8018E193D
:100C10009F098C159D0544F465E0C5010E94B2044E
:100C2000F80181938F01F2CFF50186819781892B9D
:100C300031F480859185892B11F480E009C060E052
:100C4000C5010E94B20485FD02C086FFF6CF86E092
:100C50000F90DF91CF911F910F91FF90EF90DF9058
:100C6000CF90BF90AF9008954F925F926F927F9216
:100C70008F929F92AF92CF92DF92EF92FF920F935B
:100C80001F93CF93DF9300D000D0CDB7DEB73C01E8
:100C90002A01A901980129833A834B835C830E942E
:100CA000340529813A814B815C8166E0C3010E9451
:100CB000770443E661E0C3010E944F044FE063E024
:100CC000C3010E944F0440E064E0C3010E944F044E
:100CD00045E06DE0C3010E944F046DE0C3010E9436
:100CE000B204853009F079C04E2D6EE0C3010E9438
:100CF0004F044BE265E1C3010E944F0442E668E104
:100D0000C3010E944F0440E869E1C3010E944F04FF
:100D10004AE06CE1C3010E944F04F3011186108682
:100D2000892821F41782168247E006C081E090E00E
:100D3000F301978386834FE08E899F89892B31F059
:100D400081E090E0F3019187808740616FE1C3010A
:100D50000E944F0447E160E2C3010E944F0447E450
:100D600069E2C3010E944F04F8EAFC15C0F14C2D62
:100D70006FE0C3010E944F0440E062E2C3010E94A1
:100D80004F0460EBC3010E944F0547E062E0C301DE
:100D90000E944F040E94D2186B017C010E94D2185D
:100DA0006C197D098E099F09643F71408105910589
:100DB00090F462E0C3010E94B204877079F762E2A6
:100DC000C3010E94B20484FD06C064E2C3010E9414
:100DD000B20484FF06C082E029C081E027C083E01E
:100DE00025C065E2C3010E94B20487FDF4CF6A2DDD
:100DF000C3010E94380560EAC3010E944F05141424
:100E0000150484F481E0F201EC5CFC4F808360E027
:100E1000842D0E94691942E050E06DE772E0842D54
:100E20000E945703F3015582448280E00F900F9097
:100E30000F900F90DF91CF911F910F91FF90EF9046
:100E4000DF90CF90AF909F908F907F906F905F904A
:100E50004F9008951F93CF93DF93EC01162F6130CD
:100E600041F0683031F0603121F0603211F06034CF
:100E7000F1F460EACE010E944F058C819D81181625
:100E800019062CF4FC01EC5CFC4F21E0208360EEA1
:100E9000CE010E944F054FEF410F63E0CE010E944B
:100EA0004F0460ECCE010E944F0580E001C084E059
:100EB000DF91CF911F910895E0E7F2E08591949141
:100EC00090938903809388038BE690E090938B0343
:100ED00080938A0381E080938C0310928D0310929B
:100EE0008E031092910310929003E2E7F2E0859155
:100EF000949190937F0380937E038CE690E090938F
:100F000081038093800382E08093820310928303A5
:100F1000109284031092870310928603E4E7F2E0B4
:100F20008591949190937503809374038DE690E07E
:100F3000909377038093760384E0809378031092F4
:100F4000790310927A0310927D0310927C03089526
:100F50008F589E4FFC0160830895FC0189E3DF01F7
:100F60001D928A95E9F711AE12AE13AE75AF64AF5C
:100F700057AF46AF089529E3FC0111922A95E9F78E
:100F8000FC0113AE08956F927F928F929F92AF9261
:100F9000CF92EF92FF920F931F93CF93DF93CDB732
:100FA000DEB73C01F82C1F9281E08F938824839454
:100FB000912CC3010E943406182F8F2D0E942319F3
:100FC0000E94D819D3011A961C926FEF7FEF80E030
:100FD00090E00E94E0196F5F7F4FF3017487638791
:100FE00028EC30E040E050E064E170E080E090E028
:100FF0000E94041AD3011F967C936E931E97F301EF
:10100000ED5AFF4F108211821282138234961082A1
:10101000319611821082B3961082319710820F9010
:101020000F9080E090E09301265A3F4FF901E80FBE
:10103000F91F108211821282138204968032910568
:10104000A9F728E532E040E050E064E670E080E097
:1010500090E00E94041AF301E058FF4F718360830F
:101060003497108211821282138280E23696DF0159
:101070001D928A95E9F7E056FF4F10823196108253
:10108000319610823196108211821282138280E48E
:10109000E358F109DF01982F1D929A95E9F7E05C7A
:1010A000FF4FDF011D928A95E9F7E151FF4F108252
:1010B00031961082319610823196108211821282FE
:1010C000138280E090E093012F533E4FF901E80F27
:1010D000F91F1082118212821382049680319105C9
:1010E000A9F7F301E75DFE4F11821082329610825C
:1010F000E851F14080E4DF011D928A95E9F7E45A56
:10110000FE4F1182108232961082E65BFF4F1082F2
:101110003196108211821282138234961082EE541C
:10112000F1091182108232961182108260E4C301AB
:101130000E942A071150133030F4E12FF0E0E05CF8
:10114000FE4F808101C081E0DF91CF911F910F910F
:10115000FF90EF90CF90AF909F908F907F906F9087
:101160000895CF92DF92EF92FF920F931F93CF9348
:10117000DF93EC018A018A8586132DC00E94D21864
:10118000FE01ED5AFF4FC080D180E280F3806C19E0
:101190007D098E099F09222717FD2095322F0617FA
:1011A000170728073907B8F482E08A87E45EFE4F04
:1011B000DE01A75DBE4F4D915C910190F081E02D65
:1011C00062E0CE01DF91CF911F910F91FF90EF90E0
:1011D000DF90CF900994DF91CF911F910F91FF90F5
:1011E000EF90DF90CF900895CF93DF93EC01CC5D2B
:1011F000DE4F28812230E1F09C012D5D3E4FF90148
:101200004081DC01F0E44F9FA00DB11D1124AE55CB
:10121000BF4FFC01739680E401900D928A95E1F72F
:10122000F90180818F5F8170808388818F5F8883DF
:10123000DF91CF910895FC01EC5DFE4F4081442386
:1012400091F0DC01AE5DBE4F3C9121E0230F217097
:101250002C934150408320E4329F800D911D112436
:101260008E559F4F089580E090E00895FC01ED5267
:10127000FE4F4081442391F0DC01AF52BE4F3C91C0
:1012800021E0230F23702C934150408324E0329FB0
:10129000800D911D11248F539E4F089580E090E0A2
:1012A0000895FC01318132953F70FB012181229527
:1012B0002F70321312C0FC01DB0120E030E091916D
:1012C0008D91981719F02130310539F42F5F3F4F78
:1012D00020343105A1F781E0089580E00895FC01F4
:1012E00020812A3011F02C30C1F4FB0121ADFC012A
:1012F0003581231312C0DC011696FB01822F90E08A
:101300009F01261B370B281739072CF43D9121919B
:101310003217B1F302C081E0089580E008958F9202
:101320009F92AF92BF92CF92DF92EF92FF920F9374
:101330001F93CF93DF931F92CDB7DEB74C01FC0113
:101340005285523008F493C06589758567130DC0C6
:10135000868990E0982F88272789820F911D238501
:1013600034858217930709F482C0F401438946301B
:1013700021F04D3011F0483029F4F401808D8717A9
:1013800009F475C0543019F44730F1F404C05530F5
:10139000D9F44930C9F4F401E95AFF4F8081681348
:1013A00019C03196208131812115310509F45FC0C2
:1013B000F401868990E0982F88275789850F911D21
:1013C0008217930739F453C04A30E1F04C30D1F022
:1013D0004330C1F184010D5E1F4FB4016E557F4F44
:1013E000C80149830E9451094981811140C043309D
:1013F00049F1B4016E517F4FC8010E945109882301
:1014000009F135C0F401C288D12CE12CF12C00E0A7
:1014100010E05401F3E1AF0EB11C0C151D05C4F62C
:10142000F401608971896E0D7F1DC50149830E9499
:101430006F09F0E4EF0EF11C4981811118C00F5FB4
:101440001F4FEBCFF40184898F708A3080F4C40180
:101450000F90DF91CF911F910F91FF90EF90DF9050
:10146000CF90BF90AF909F908F900C94F4080F9006
:10147000DF91CF911F910F91FF90EF90DF90CF9070
:10148000BF90AF909F908F900895FF920F931F93FE
:10149000CF93DF938C01EB01F42E89AD2AAD30E0C0
:1014A000280F311D2250310928333105E8F4F801A5
:1014B000858349AD50E0C80106960E94C31B89ADE3
:1014C000FF20A1F090E02AADF801E80FF91F268374
:1014D00007964AAD50E029ADBE01620F711D800F25
:1014E000911F0E94C31B02C080E001C081E0DF9118
:1014F000CF911F910F91FF900895FF920F931F932B
:10150000CF93DF938C01EB01F42EFC0155818FEF1B
:10151000850F893360F5852F90E0442361F0E80F53
:10152000F91F2681BC01620F711D9B0122503109F8
:1015300028333105E0F459AFAC01B8016A5F7F4F41
:10154000CE010E94C31B89ADFF2099F090E0F80105
:10155000E80FF91F46814AAF50E0BC01695F7F4F39
:10156000600F711F8C0F9D1F0E94C31B02C080E083
:1015700001C081E0DF91CF911F910F91FF900895FD
:10158000DF92EF92FF920F931F93CF93DF938C0123
:10159000EB01D42EE9ACFC018581E8121EC0F12CD0
:1015A000A701B8016A5F7F4FCE010E94B61B892B4D
:1015B000A1F4D11002C081E011C0B7016A5F7F4F72
:1015C000600F711F4AADFB018081481306C050E0D7
:1015D000CE010E94B61B892B71F380E0DF91CF9181
:1015E0001F910F91FF90EF90DF900895AF92BF92FF
:1015F000CF92DF92EF92FF920F931F93CF93DF93DF
:101600007C01FC01C288D12C00E010E0C0E0D0E0F9
:101610005C01F3E1AF0EB11CCC15DD057CF4F701E4
:1016200060897189600F711F40E0C5010E94C00A86
:10163000005C1F4F811105C02196EECF8FEF9FEF09
:1016400001C0CE01DF91CF911F910F91FF90EF90DC
:10165000DF90CF90BF90AF9008957F928F929F922E
:10166000AF92BF92CF92DF92EF92FF920F931F93B0
:10167000CF93DF93EC017C018DE2E81A8EEFF80A3C
:10168000F7018080F2E08F1609F449C09C8892949B
:101690002FE092222B896E018EE2C81A8EEFD80AB3
:1016A000F6017080072D10E05801AA0CBB1CAA0C93
:1016B000BB1CCE018A0D9B1DFC01EF53FE4F208306
:1016C00031961082319690822B3021F02D3079F0B6
:1016D0002930C1F4CE010E94F60AF801EF58FF4FFD
:1016E000EE0FFF1FEE0FFF1FEC0FFD1F0AC0F801EA
:1016F000EF58FF4FEE0FFF1FEE0FFF1FEC0FFD1F08
:10170000888D8083CA0DDB1DCD53DE4F988281E02A
:10171000870D8370F60180838394F7018082DF91C7
:10172000CF911F910F91FF90EF90DF90CF90BF90DE
:10173000AF909F908F907F900895CF93DF93FC019F
:10174000EC01C658DF4F2881822F90E0AF0164E0A2
:10175000269F400D511D11249A01DA01A65ABF4F50
:1017600043894C931196448942954F704C93DC0108
:101770005796AA0FBB1FAA0FBB1FAE0FBF1F4689EC
:101780004C93D901A35ABF4F47894C930196877058
:1017900099278883DF91CF910895FC0153895613CF
:1017A00038C04423D9F09F01205E3F4FDC01A65A88
:1017B000BF4F4C9154132FC0448942954F701196DE
:1017C0006C91461328C011966C914689641323C00E
:1017D00011966C91478964131EC01BC0DC01A95A85
:1017E000BF4F8C91882319F09589981312C0DF019F
:1017F000A85ABF4F2D913C912115310581F0868962
:1018000090E0982F88274789840F911D82179307AE
:1018100031F080E0089504968217930739F681E04D
:101820000895CF93DF93EC018A858330E1F440E0A3
:1018300065E0CE010E94CD0B8823A9F08D89982FF9
:10184000969596959695C90FD11DCE57DF4F282FA7
:10185000277081E090E0022E01C0880F0A94EAF719
:101860009881982B9883DF91CF910895CF93DF9340
:10187000EC018A85843051F540E067E0CE010E949A
:10188000CD0B882319F1FE01E55DFE4F888D808325
:10189000EF5BFF4F8D8980838E8990E0982F88279A
:1018A00031962F89820F911D9183808382E08A87F0
:1018B0003296DE01A75DBE4F4D915C910190F081A3
:1018C000E02D61E0CE01DF91CF910994DF91CF91BE
:1018D0000895CF93DF93EC018A85853091F540E040
:1018E00069E0CE010E94CD0B882359F140E0BE0192
:1018F000645D7E4FCE0143960E947D0A81111FC018
:1019000063E0FE01E459FE4F8D8980838E8990E06B
:10191000982F882731962F89820F911D918380837C
:1019200082E08A873296DE01A75DBE4F4D915C91C1
:101930000190F081E02DCE01DF91CF91099461E01B
:10194000E0CFDF91CF910895EF92FF920F931F9315
:10195000CF93DF93EC018A85863009F042C040E0E6
:101960006BE0CE010E94CD0B8823D9F17E0184ED7E
:10197000E81A8EEFF80A8E010D5E1F4F40E0B701A6
:10198000C8010E94C00A882361F141E0B701C80183
:101990000E947D0A882311F061E001C065E0FE012C
:1019A000E459FE4F8D8980838E8990E0982F882797
:1019B00031962F89820F911D9183808382E08A87DF
:1019C0003296DE01A75DBE4F4D915C910190F08192
:1019D000E02DCE01DF91CF911F910F91FF90EF90FD
:1019E0000994DF91CF911F910F91FF90EF9008958F
:1019F000CF93DF93EC018A858730F1F540E06DE00D
:101A0000CE010E94CD0B8823B9F1988D8D85981356
:101A100033C0898D882371F181E0FE01E959FE4FC1
:101A2000808346E350E0BE01675E7F4FCE01845D58
:101A30009E4F0E94CC1B66E0FE01E459FE4F8D894B
:101A400080838E8990E0982F882731962F89820F86
:101A5000911D9183808382E08A873296DE01A75DA3
:101A6000BE4F4D915C910190F081E02DCE01DF9150
:101A7000CF91099461E0E0CFDF91CF910895CF92AB
:101A8000DF92EF92FF920F931F93CF93DF93EC01BE
:101A90008A85823008F440C07E018EE8E81A8EEF15
:101AA000F80AD7018D919C91892BB1F18D89811113
:101AB00033C041E06BE0CE010E94CD0B882361F181
:101AC000FE01EC58FE4FC080D1808E010D5E1F4F8D
:101AD00041E0B601C8010E94C00A8823E9F041E054
:101AE000B601C8010E947D0A8823B1F0FE01E75DBE
:101AF000FE4F60817181D701ED91FC91CE01099576
:101B0000B801CE01DF91CF911F910F91FF90EF901F
:101B1000DF90CF900C949D0BDF91CF911F910F918F
:101B2000FF90EF90DF90CF900895FC0121812F70FE
:101B3000F0E16F9FB0011124262BFC012183089551
:101B4000CF93DF93EC01439620E4FC0111922A9598
:101B5000E9F76B8B2C89207F2C8BFE01E558FF4F1A
:101B600060810E94950D8D858D8B8B859C859E8BCC
:101B70008F8BDF91CF910895AF92BF92CF92DF927A
:101B8000EF92FF920F931F93CF93DF93EC018B01A2
:101B90007B01EE0CFF1CEE0CFF1CE80EF91E57013A
:101BA0008FE3A81A8EEFB80AF5016081CE010E947A
:101BB000A00D6E01F3E1CF0ED11CF701ED53FE4FE6
:101BC0006081C6010E94950DF50180818930A9F0E0
:101BD00028F4873009F044C08A8941C08B3001F174
:101BE0008D30F1F5F801EF58FF4FEE0FFF1FEE0FAC
:101BF000FF1FEC0FFD1F808132C0F801EF58FF4F2F
:101C0000EE0FFF1FEE0FFF1FEC0FFD1F8081688995
:101C10007989F0E48F9F600D711D112440E012C09E
:101C2000F801EF58FF4FEE0FFF1FEE0FFF1FEC0FF5
:101C3000FD1F80816889798990E4899F600D711DFD
:101C4000112441E0C601DF91CF911F910F91FF90C8
:101C5000EF90DF90CF90BF90AF900C94450A888FA3
:101C6000DF91CF911F910F91FF90EF90DF90CF9078
:101C7000BF90AF900895FC012181207F6F70262BCB
:101C800021830895CF93DF93EC01FE0164916623D5
:101C900031F085E993E00E94A3152196F6CFDF91FC
:101CA000CF910895CF93DF93EC010E94D218AB013E
:101CB000BC012AE030E085E993E00E94411884EEFF
:101CC00091E00E94420E6B857C8540E150E085E901
:101CD00093E00E946C1881EE91E0DF91CF910C941B
:101CE000420E0F931F93CF93DF93EC018A858330CD
:101CF00009F05EC00E94D218FE01ED5AFF4F00812C
:101D0000118122813381601B710B820B930B613D2A
:101D100077408105910508F44BC081E090E000E038
:101D200010E041E050E0BC01677077279A0102C0E3
:101D3000220F331F6A95E2F7B9019C0173E03595D4
:101D400027957A95E1F72C0F3D1FF901EE57FF4FCC
:101D50002081262311F00F5F1F4F0196811531E07E
:101D6000930709F7CE010E94520E89E291E00E948A
:101D7000420E4AE050E0B80185E993E00E94211844
:101D80008AE191E00E94420E82E08A87FE01E159D9
:101D9000FE4FDE01A75DBE4F4D915C910190F08139
:101DA000E02D61E0CE01DF91CF911F910F91099459
:101DB000DF91CF911F910F910895CF92DF92EF9213
:101DC000FF920F931F93CF93DF93EC018A858230AC
:101DD00008F465C0FE01EC5DFE4F8081882309F4A4
:101DE0005EC00E94D2188E010B5D1E4FF801C080AC
:101DF000D180E280F3806C197D098E099F09CE8421
:101E0000DF84E12CF12CC616D706E806F90608F0A7
:101E100046C0CE010E941B097C01FC0161816F70EC
:101E20006F5F0E943B0E40E4B701CE010E9468053F
:101E30000E94D218F8016083718382839383CE015C
:101E40000E94520E81E191E00E94420E00E010E0FB
:101E5000F70161917F0140E150E085E993E00E9444
:101E60004E188DE091E00E94420E0F5F1F4F06302A
:101E7000110571F787E091E00E94420ECE010E94A9
:101E8000D2048111FBCF60E4CE01DF91CF911F918D
:101E90000F91FF90EF90DF90CF900C942A07DF9185
:101EA000CF911F910F91FF90EF90DF90CF90089509
:101EB0008F929F92AF92BF92CF92DF92EF92FF925A
:101EC0000F931F93CF93DF93EC018A85823008F440
:101ED000B8C06E014DE2C41A4EEFD40AF6018081FB
:101EE000882309F4AEC00E94D2188E010C521E4FF6
:101EF000F80180809180A280B380681979098A09ED
:101F00009B098E849F84A12CB12C86169706A80667
:101F1000B90608F096C07E018FE2E81A8EEFF80A43
:101F2000F701608170E0F601A081B0E021E030E0CF
:101F30004B016B01CC0CDD1CCC0CDD1C2A173B07C4
:101F400014F5C901880D991D83709927AC01440FC0
:101F5000551F440F551F4C0F5D1F5A01FEE3AF1A6A
:101F6000FEEFBF0ACC0EDD1E4EE3C41A4EEFD40ABC
:101F7000F5015081F6014081541708F0CB012F5F25
:101F80003F4FBC01D6CFCE010E94BC0D0E94D2189B
:101F9000F8016083718382839383CC0EDD1EF6018A
:101FA000EE53FE4F80818F5F808340E4BE016D5E03
:101FB0007F4FCE010E946805CE010E94520E85EF30
:101FC00090E00E94420E00E010E0FE01E00FF11FE1
:101FD00040E150E0638985E993E00E944E1881EF6B
:101FE00090E00E94420E0F5F1F4F0630110569F707
:101FF0008BEE90E00E94420ECE010E94D20481112D
:10200000FBCFF7018081FE0144E0849FE00DF11DCC
:102010001124EE53FE4F8081843018F0CE010E94CF
:10202000360960E4CE01DF91CF911F910F91FF90AF
:10203000EF90DF90CF90BF90AF909F908F900C94D7
:102040002A07DF91CF911F910F91FF90EF90DF90C2
:10205000CF90BF90AF909F908F9008958F929F9256
:10206000AF92BF92EF92FF920F931F93CF93DF93A4
:10207000EC018A85833008F469C08E0100541E4F3C
:10208000F8018081843008F061C00E94D2187E017E
:10209000F4E4EF1AFEEFFF0AF70180809180A2803E
:1020A000B380681979098A099B098E849F84A12CC1
:1020B000B12C86169706A806B90608F047C00E94FC
:1020C000D218F7016083718382839383F801808142
:1020D0008F5F808340E4BE0165587E4FCE010E9431
:1020E0006805CE010E94520E8AED90E00E94420ED9
:1020F00000E010E0FE01E00FF11FE558FE4F40E167
:1021000050E0608185E993E00E944E1886ED90E0F2
:102110000E94420E0F5F1F4F0630110559F780EDE8
:1021200090E00E94420ECE010E94D2048111FBCFAA
:1021300060E4CE01DF91CF911F910F91FF90EF905E
:10214000BF90AF909F908F900C942A07DF91CF9112
:102150001F910F91FF90EF90BF90AF909F908F9045
:1021600008950F931F93CF93DF93EC018B89982FE2
:102170009D7F953021F0993011F08D3019F4CE010A
:102180000E942D0B40E4BE016D5E7F4FCE010E9488
:102190006805CE010E94520E8BEC90E00E94420E28
:1021A00000E010E0FE01E00FF11F40E150E0638924
:1021B00085E993E00E944E1887EC90E00E94420E61
:1021C0000F5F1F4F0630110569F781EC90E00E9408
:1021D000420ECE010E94D2048111FBCF60E4CE01F9
:1021E000DF91CF911F910F910C942A07CF93DF932A
:1021F000EC018A858230B0F041E064E0CE010E94BB
:10220000CD0B882379F0BE016D5E7F4FCE010E9419
:102210009D0B65E0CE010E94A00DCE01DF91CF9114
:102220000C94B110DF91CF910895CF93DF93EC011F
:102230008A858230E0F041E066E0CE010E94CD0B5D
:102240008823A9F0988D8D85981311C0BE016D5E0D
:102250007F4FCE010E949D0B67E0CE010E94A00D32
:102260008A89888FCE01DF91CF910C94B110DF91D4
:10227000CF910895FF920F931F93CF93DF93EC01BB
:102280008A85823070F141E068E0CE010E94CD0B7A
:10229000882339F1988D8D85981323C0F98C8E0190
:1022A0000D5E1F4FB801CE010E949D0B69E0CE016B
:1022B0000E94A00D188E8A89F81658F468897989C9
:1022C00080E4F89E600D711D112440E0C8010E9459
:1022D000450ACE01DF91CF911F910F91FF900C9491
:1022E000B110DF91CF911F910F91FF900895EF9260
:1022F000FF920F931F93CF93DF93EC018A85823077
:1023000008F444C041E06AE0CE010E94CD0B88236E
:10231000E9F1CE010E94F60A7C018F3FFFEF9F0793
:10232000A9F18E010D5E1F4FB801CE010E949D0BD9
:102330006BE0CE010E94A00DA6E0EE0CFF1CAA955A
:10234000E1F7A889B989AE0DBF1DDE962D913C91AC
:10235000DF972115310549F0CE01875D9E4FFC01C5
:1023600060817181CD01F9010995688979896E0DC6
:102370007F1D41E0C8010E94450ACE01DF91CF9147
:102380001F910F91FF90EF900C94B110DF91CF91BE
:102390001F910F91FF90EF900895CF92DF92EF92EF
:1023A000FF920F931F93CF93DF93EC018A858230C6
:1023B00008F4A8C041E06CE0CE010E94CD0B882358
:1023C00009F4A0C0CE010E94F60A8F3FEFEF9E07EE
:1023D00009F498C08C01B6E0000F111FBA95E1F71F
:1023E000A889B989A00FB11FDC962D913C91DD978A
:1023F0002115310569F1CE01875D9E4FFC014081B9
:102400005181BE01CD01F90109958E3019F1863057
:1024100091F4FE01E959FE4F808181111EC0E9EE61
:10242000F1E06591749146E350E0CE01845D9E4FEA
:102430000E94A71B12C0813059F0EBEEF1E06591CC
:10244000749146E350E0CE01845D9E4F0E94A71B2D
:1024500020E001C021E0D12C03C020E0DD24D39492
:1024600068897989600F711FFB0184AD95ADAE015C
:102470004D5E5F4F7A01892B11F0222399F041E0E4
:10248000C7010E947D0A81110DC0EDEEF1E065915A
:10249000749146E350E0CE01845D9E4F0E94A71BDD
:1024A000DD24D394CD88B701CE010E949D0B6DE051
:1024B000CE010E94A00DC88EDD2099F046E350E0C9
:1024C0007E0184EDE81A8EEFF80AB701CE01499635
:1024D0000E94CC1B40E050E060E070E0C7010E9429
:1024E000AD07CE010E94B11088899989800F911F94
:1024F000DF91CF911F910F91FF90EF90DF90CF90E0
:102500000C94BB07DF91CF911F910F91FF90EF903B
:10251000DF90CF900895CF93DF93EC010E94D21803
:10252000FE01ED5AFF4F6083718382839383B896D7
:10253000808190E001968F70992780838B8983300A
:1025400051F080E4E856F109DE01A558BE4F019034
:102550000D928A95E1F7CE01DF91CF910C94B110E5
:10256000CF93DF93EC01FC01E858FE4F80818A870E
:102570003997DE01AA58BE4F8D919C911197918396
:102580008083E851F14013968C91808331961196A7
:102590008C9190E091838083ED59FE4F1082A75675
:1025A000B140E054F10980E401900D928A95E1F781
:1025B0006B89CE010E94A00DCE01DF91CF910C94CA
:1025C0008B120F931F93CF93DF93EC018A85813099
:1025D00009F047C00E94D218FE01E458FF4F008165
:1025E000118122813381601B710B820B930B69383F
:1025F00073418105910598F082E08A87ED50FF4F85
:10260000DE01A75DBE4F4D915C910190F081E02D00
:1026100061E0CE01DF91CF911F910F9109940E944B
:10262000D218FE01ED5AFF4F0081118122813381C2
:10263000601B710B820B930BBD960081118120E012
:1026400030E0061717072807390758F463E0CE0172
:102650000E94A00DCE01DF91CF911F910F910C949C
:102660008B12DF91CF911F910F910895CF93DF933C
:10267000EC018A85823080F09D898D8598130CC08D
:102680008E8990E0982F88272F89820F911D2B85A6
:102690003C858217930711F480E020C0CE010E9490
:1026A000520E88E591E00E94420E6E8970E0762F0E
:1026B00066278F89680F711D40E150E085E993E03E
:1026C0000E946C188FE391E00E94420E61E0CE01FF
:1026D0000E94A00DCE010E948B1281E0DF91CF916C
:1026E0000895CF93DF93EC018A858130B9F58B890A
:1026F0008330A1F59D898D85981330C08E8990E037
:10270000982F88272F89820F911D2B853C852817AC
:10271000390720F5CE010E94520E87EB91E00E940E
:10272000420E6E8970E0762F66278F89680F711DC3
:1027300040E150E085E993E00E946C1886E891E062
:102740000E94420EFE01E159FE4F408151816D858C
:102750006F5FCE01DF91CF910C94E514DF91CF91A3
:1027600008950F931F93CF93DF93EC010E94DB0436
:10277000873009F46DC040E4BE016D5E7F4FCE012D
:102780000E94DA05182F882361F08EE890E00E94FD
:10279000420E612F70E04AE050E085E993E00E942C
:1027A000291860E4CE010E942A07CE010E94520E31
:1027B00089E890E00E94420E00E010E0FE01E00F88
:1027C000F11F40E150E0638985E993E00E944E18D3
:1027D00085E890E00E94420E0F5F1F4F0630110502
:1027E00069F78FE790E00E94420ECE010E943613F7
:1027F00081112EC0CE010E94E814CE010E947113F7
:10280000CE010E948F09CE010E94F610CE010E94D7
:10281000110CCE010E941511CE010E94360CCE0182
:102820000E943A11CE010E94690CCE010E947711DC
:10283000CE010E94A40CCE010E94CD11CE010E94B7
:10284000F80CCE01DF91CF911F910F910C943F0DA9
:10285000DF91CF911F910F910895CF93DF93EC01FA
:102860000E94B113CE010E94E112CE010E94710EAE
:1028700048EB5BE064E0CE010E94B10848EB5BE00E
:1028800065E0CE010E94B10848EB5BE066E0CE0156
:102890000E94B10848EB5BE067E0CE010E94B108FE
:1028A000CE010E94DD0ECE010E94580FCE010E9483
:1028B0002E1081E0DF91CF910895AF92BF92CF9219
:1028C000DF92EF92FF920F931F93CF93DF931F92AC
:1028D000CDB7DEB75C017A018C0101591E4F22236E
:1028E000E1F081E0F501E554FE4F8083F80180813D
:1028F0009181379691838083F5018285E858FE4F58
:102900008083E152F1408081EE5DFE4F8083E15291
:10291000F1408081EE5DFE4F808381E0F50182878A
:10292000658729830E94D218F501E458FF4F608320
:10293000718382839383C5010E94520E8AEC91E0D9
:102940000E94420E4AE050E0F501658585E993E07A
:102950000E945518C5018F589E4F6C012981FC01BA
:102960001082222319F080EB92E105C0E114F104FA
:1029700031F488EA97E0F8019183808303C0F8017D
:10298000F182E08263E0C5010E94A00DC5010E94B2
:102990008B12EF2841F4F6018081811105C0C50139
:1029A0000E942D14F8CF81E00F90DF91CF911F91FD
:1029B0000F91FF90EF90DF90CF90BF90AF90089570
:1029C000AB0120E061E00C945D1420E00C945D14F8
:1029D0001F93CF93DF93EC018B89813091F51D8993
:1029E0008D8518132EC08E8990E0982F88272F8907
:1029F000820F911D2B853C858217930711F14A8523
:102A0000413011F41F5F06C04423D9F0281739075D
:102A1000C0F411E0BE016D5E7F4FCE010E949D0BA0
:102A200021E08A85833008F420E0FE01E159FE4F61
:102A300040815181612FCE01DF91CF911F910C9484
:102A40005D14DF91CF911F910895FC01818D228D3E
:102A500090E0805C9F4F821B91098F7399270895A6
:102A6000FC01918D828D981731F0828DE80FF11D58
:102A7000858D90E008958FEF9FEF0895FC01918D73
:102A8000828D981761F0828DDF01A80FB11D5D96D0
:102A90008C91928D9F5F9F73928F90E008958FEF3E
:102AA0009FEF089582EC96E1892B49F080E090E059
:102AB000892B29F00E94C21681110C940000089500
:102AC000FC01848DDF01A80FB11DA35ABF4F2C91CB
:102AD000848D90E001968F739927848FA689B7899A
:102AE0002C93A089B1898C9180648C93938D848D73
:102AF000981306C00288F389E02D80818F7D808342
:102B00000895CF93DF93EC01888D8823C9F0EA897B
:102B1000FB89808185FD05C0A889B9898C9186FDD6
:102B20000FC00FB607FCF5CF808185FFF2CFA889D3
:102B3000B9898C9185FFEDCFCE010E946015E7CF5A
:102B4000DF91CF910895CF92DF92FF920F931F9361
:102B5000CF93DF931F92CDB7DEB76C01DC015B969C
:102B60009C915B975C968C915C97981307C05096EC
:102B7000ED91FC915197808185FD32C0F601038D66
:102B800010E00F5F1F4F0F731127F02EF601848D99
:102B9000F81211C00FB607FCF9CFD6015096ED918F
:102BA000FC915197808185FFF1CFC60169830E9416
:102BB00060156981EBCF838DE80FF11DE35AFF4F5C
:102BC0006083D6015B960C935B975296ED91FC91D6
:102BD000539780818062808381E058968C930DC0EA
:102BE000D6015696ED91FC91579760835096ED91E2
:102BF000FC91519780818064808381E090E00F9008
:102C0000DF91CF911F910F91FF90DF90CF900895AA
:102C1000BF92CF92DF92EF92FF92CF93DF93EC01BE
:102C20006A017B01B22EE889F98982E0808341152F
:102C300081EE580761057105A1F060E079E08DE350
:102C400090E0A70196010E94DB1B21503109410948
:102C500051095695479537952795211580E13807F5
:102C600098F0E889F989108260E874E88EE190E0D4
:102C7000A70196010E94DB1B21503109410951092E
:102C80005695479537952795EC85FD853083EE85DC
:102C9000FF852083188EEC89FD89B082EA89FB8943
:102CA000808180618083EA89FB898081886080835C
:102CB000EA89FB89808180688083EA89FB89808139
:102CC0008F7D8083DF91CF91FF90EF90DF90CF9049
:102CD000BF9008951F920F920FB60F9211242F9359
:102CE0008F939F93EF93FF93E091A503F091A60339
:102CF0008081E091AB03F091AC0382FD12C0908122
:102D00008091AE038F5F8F732091AF03821751F0D4
:102D1000E091AE03F0E0EB56FC4F958F8093AE034D
:102D200001C08081FF91EF919F918F912F910F9022
:102D30000FBE0F901F9018951F920F920FB60F9213
:102D400011242F933F934F935F936F937F938F93B0
:102D50009F93AF93BF93EF93FF9385E993E00E9416
:102D60006015FF91EF91BF91AF919F918F917F91EE
:102D70006F915F914F913F912F910F900FBE0F90E8
:102D80001F90189585E993E00E94251521E0892B75
:102D900009F420E0822F089510929803109297036F
:102DA00088EE93E0A0E0B0E08093990390939A03BB
:102DB000A0939B03B0939C0387E491E090939603C8
:102DC0008093950385EC90E09093A2038093A103F8
:102DD00084EC90E09093A4038093A30380EC90E0B4
:102DE0009093A6038093A50381EC90E09093A803B1
:102DF0008093A70382EC90E09093AA038093A903A9
:102E000086EC90E09093AC038093AB031092AE03FA
:102E10001092AF031092B0031092B10308950C9476
:102E2000201ACF92DF92EF92FF920F931F93CF93CE
:102E3000DF936C017A01EB01E60EF71E00E010E073
:102E4000CE15DF0561F06991D601ED91FC910190FD
:102E5000F081E02DC6010995080F191FF1CFC801B7
:102E6000DF91CF911F910F91FF90EF90DF90CF9066
:102E700008956115710581F0DB010D900020E9F7DF
:102E8000AD0141505109461B570BDC01ED91FC91FE
:102E90000280F381E02D099480E090E008950C9485
:102EA0003917DC01ED91FC910190F081E02D09943E
:102EB0000F931F93CF93DF93EC016DE00E945117A6
:102EC0008C016AE0CE010E945117800F911FDF91A3
:102ED000CF911F910F9108950F931F93CF93DF937D
:102EE000EC010E9439178C01CE010E945817800F07
:102EF000911FDF91CF911F910F9108958F929F9213
:102F0000AF92BF92CF92DF92EF92FF920F931F93F7
:102F1000CF93DF93CDB7DEB7A1970FB6F894DEBF9E
:102F20000FBECDBF7C01C42EE52FCB01D22E19A23E
:102F300021E02D1510F02AE0D22E8E010F5D1F4FDB
:102F40008D2C912CA12CB12C6C2D7E2FA5019401E0
:102F50000E94DB1B8C2DD29E801911240150110977
:102F60008A3010F4805D01C0895CF80180832115EE
:102F700031054105510521F0C22EE32FCA01E4CFEE
:102F8000B801C7010E943917A1960FB6F894DEBFA9
:102F90000FBECDBFDF91CF911F910F91FF90EF90AA
:102FA000DF90CF90BF90AF909F908F900895CF9279
:102FB000DF92EF92FF920F931F93CF93DF93EC0179
:102FC0006A017B012115310579F4E881F9810190CD
:102FD000F081E02D642FDF91CF911F910F91FF9031
:102FE000EF90DF90CF9009942A303105E9F477FF14
:102FF0001AC06DE20E9451178C0144275527BA016F
:103000004C195D096E097F092AE0CE010E947E17E6
:10301000800F911FDF91CF911F910F91FF90EF9043
:10302000DF90CF9008952AE0B701A601CE01DF918D
:10303000CF911F910F91FF90EF90DF90CF900C9464
:103040007E179A01AB01662757FD6095762F0C9489
:10305000D7170F931F93CF93DF93EC019A01AB0126
:10306000662757FD6095762F0E94D7178C01CE01F9
:103070000E945817800F911FDF91CF911F910F91E0
:1030800008952115310541F4DC01ED91FC91019089
:10309000F081E02D642F09940C947E179A01462F3D
:1030A00050E060E070E00C9441180F931F93CF93B1
:1030B000DF93EC019A01462F50E060E070E00E943F
:1030C00041188C01CE010E945817800F911FDF918B
:1030D000CF911F910F9108959A01AB0160E070E0CC
:1030E0000C9441180F931F93CF93DF93EC019A0137
:1030F000AB0160E070E00E9441188C01CE010E949B
:103100005817800F911FDF91CF911F910F91089554
:103110001F920F920FB60F9211242F933F938F930C
:103120009F93AF93BF938091330490913404A09107
:103130003504B09136043091320423E0230F2D374B
:1031400020F40196A11DB11D05C026E8230F0296AB
:10315000A11DB11D20933204809333049093340455
:10316000A0933504B09336048091370490913804CD
:10317000A0913904B0913A040196A11DB11D80932C
:10318000370490933804A0933904B0933A04BF9164
:10319000AF919F918F913F912F910F900FBE0F9004
:1031A0001F9018952FB7F8946091330470913404F0
:1031B00080913504909136042FBF0895019739F01E
:1031C000880F991F880F991F02970197F1F70895AB
:1031D000789484B5826084BD84B5816084BD85B5F2
:1031E000826085BD85B5816085BDEEE6F0E08081B9
:1031F00081608083E1E8F0E01082808182608083DA
:10320000808181608083E0E8F0E08081816080835C
:10321000E1EBF0E0808184608083E0EBF0E080818E
:1032200081608083EAE7F0E0808184608083808130
:1032300082608083808181608083808180688083D8
:103240001092C10008958E3008F08E508770209142
:103250000A0190E4299F90011124822B80937C0025
:1032600080917A00806480937A0080917A0086FD54
:10327000FCCF809178002091790090E0922B089506
:10328000833081F028F4813099F08230A1F00895E4
:103290008730A9F08830B9F08430D1F48091800073
:1032A0008F7D03C0809180008F7780938000089588
:1032B00084B58F7702C084B58F7D84BD08958091D9
:1032C000B0008F7703C08091B0008F7D8093B000F5
:1032D0000895CF93DF9390E0FC01EC5BFD4F2491C8
:1032E000FC01E85AFD4F8491882349F190E0880F52
:1032F000991FFC01E058FD4FA591B4918A589D4F4C
:10330000FC01C591D4919FB7611108C0F8948C91CC
:10331000209582238C93888182230AC0623051F4E5
:10332000F8948C91322F309583238C938881822B53
:10333000888304C0F8948C91822B8C939FBFDF917B
:10334000CF9108950F931F93CF93DF931F92CDB723
:10335000DEB7282F30E0F901E05DFD4F8491F901DF
:10336000EC5BFD4F1491F901E85AFD4F04910023E5
:10337000C9F0882321F069830E9440196981E02FF8
:10338000F0E0EE0FFF1FEA58FD4FA591B4919FB7F3
:10339000F8948C91611103C01095812301C0812B99
:1033A0008C939FBF0F90DF91CF911F910F91089544
:1033B000009729F0BC0180E090E00C949B1B0895DD
:1033C000CF93DF9300D000D0CDB7DEB79B01AC0127
:1033D000611571058105910569F069833A834B8315
:1033E0005C830E94961B29813A814B815C810E94FB
:1033F000FD1B03C060E070E0CB010F900F900F90B9
:103400000F90DF91CF910895CF92DF92EF92FF92CC
:103410006B017C01621773078407950764F4CA0186
:10342000B9016C197D098E099F090E94E0196C0D84
:103430007D1D8E1D9F1DFF90EF90DF90CF90089512
:10344000CF93DF938230910510F482E090E0E09119
:103450003D04F0913E0420E030E0A0E0B0E0309781
:1034600039F14081518148175907B8F04817590779
:1034700071F482819381109729F013969C938E9317
:1034800012972CC090933E0480933D0427C02115D1
:10349000310531F04217530718F0A901DB0101C0D3
:1034A000EF019A01BD01DF010280F381E02DD7CF4A
:1034B00021153105F9F0281B390B2430310580F432
:1034C0008A819B816115710521F0FB0193838283C1
:1034D00004C090933E0480933D04FE01329644C0A4
:1034E000FE01E20FF31F819391932250310939833A
:1034F00028833AC020913B0430913C04232B41F4B3
:10350000209102013091030130933C0420933B044D
:1035100020910001309101012115310541F42DB7B1
:103520003EB74091040150910501241B350BE091F9
:103530003B04F0913C04E217F307A0F42E1B3F0B71
:103540002817390778F0AC014E5F5F4F2417350715
:1035500048F04E0F5F1F50933C0440933B0481930F
:10356000919302C0E0E0F0E0CF01DF91CF910895A8
:10357000CF93DF93009709F487C0FC013297138241
:103580001282C0913D04D0913E04209781F42081A5
:103590003181280F391F80913B0490913C048217A0
:1035A000930779F5F0933C04E0933B046DC0DE0192
:1035B00020E030E0AE17BF0750F412964D915C91B9
:1035C00013979D014115510509F1DA01F3CFB3833A
:1035D000A28340815181840F951F8A179B0771F444
:1035E0008D919C911197840F951F029691838083F2
:1035F00012968D919C9113979383828321153105A7
:1036000029F4F0933E04E0933D043EC0D9011396A3
:10361000FC93EE9312974D915D91A40FB51FEA179D
:10362000FB0779F480819181840F951F0296D9015F
:1036300011969C938E938281938113969C938E9383
:103640001297E0E0F0E08A819B81009719F0FE017B
:10365000EC01F9CFCE01029628813981820F931FA8
:1036600020913B0430913C042817390769F43097C6
:1036700029F410923E0410923D0402C0138212827B
:10368000D0933C04C0933B04DF91CF9108958F9277
:103690009F92AF92BF92CF92DF92EF92FF92CF9321
:1036A000DF93EC01688179818A819B8161157105C5
:1036B0008105910521F464E279ED8BE597E02DE138
:1036C00033EF41E050E00E94FD1B49015A019B018C
:1036D000AC01A7EAB1E40E941C1C6B017C01ACEEBA
:1036E000B4EFA50194010E942A1CC60ED71EE81E45
:1036F000F91EF7FE06C081E0C81AD108E10880E88B
:10370000F80AC882D982EA82FB82C701B6019F7794
:10371000DF91CF91FF90EF90DF90CF90BF90AF906F
:103720009F908F9008950E94471B089586E091E036
:103730000E94471B089560930601709307018093D0
:103740000801909309010895F8940C94441CFB011E
:10375000DC014150504048F005900D920020C9F71F
:1037600001C01D9241505040E0F70895FB01DC017B
:1037700004C08D910190801921F441505040C8F748
:10378000881B990B0895FB01DC0102C001900D928A
:1037900041505040D8F70895FB01DC0141505040A2
:1037A00048F001900D920020C9F701C01D924150D0
:1037B0005040E0F70895A1E21A2EAA1BBB1BFD01A1
:1037C0000DC0AA1FBB1FEE1FFF1FA217B307E40700
:1037D000F50720F0A21BB30BE40BF50B661F771F58
:1037E000881F991F1A9469F7609570958095909538
:1037F0009B01AC01BD01CF010895052E97FB1EF47E
:1038000000940E94141C57FD07D00E94DB1B07FC8C
:1038100003D04EF40C94141C50954095309521958E
:103820003F4F4F4F5F4F08959095809570956195EC
:103830007F4F8F4F9F4F08950E94351CA59F900D7D
:10384000B49F900DA49F800D911D11240895B7FF82
:103850000C941C1C0E941C1C821B930B0895EE0FE1
:10386000FF1F0590F491E02D0994A29FB001B39F32
:10387000C001A39F700D811D1124911DB29F700D79
:0C388000811D1124911D0895F894FFCFC4
:10388C0000003F0480000100000001434C4F434BFB
:10389C002069733A20005374617274696E672E2E1E
:1038AC002E00526164696F325F52310001020405CF
:1038BC000707070000000102030388037E0374035B
:1038CC000B0C0D00000000A315111725153E15302B
:0438DC00158115003D
:00000001FF
